:020000040800F2
:1000000000000120F1040008410500084105000836
:1000100041050008410500084105000800000000F6
:100020000000000000000000000000004105000882
:1000300041050008000000004105000841050008D6
:100040004105000841050008410500084105000878
:100050004105000841050008410500084105000868
:100060004105000841050008410500084105000858
:100070004105000841050008410500084105000848
:100080004105000841050008410500080000000086
:100090000000000000000000000000004105000812
:1000A0004105000841050008410500084105000818
:1000B0004105000841050008410500084105000808
:1000C00041050008410500084105000841050008F8
:1000D0004105000841050008410500080000000036
:1000E0004105000841050008410500080000000026
:1000F00000000000000000000000000041050008B2
:100100000000000041050008410500084105000805
:1001100000000000000000000000000000000000DF
:100120004105000841050008410500084105000897
:100130004105000800000000000000000000000071
:100140000000000000000000000000004105000861
:100150004105000841050008410500084105000867
:1001600041050008410500080000000000000000F3
:10017000000000000000000000000000000000007F
:100180000000000041050008000000000000000021
:04019000410500081D
:100194000348044B834202D0034B03B11847704712
:1001A4000400002004000020000000000548064B65
:1001B4001B1AD90F01EBA301491002D0034B03B161
:1001C40018477047040000200400002000000000CD
:1001D40010B5064C237843B9FFF7DAFF044B13B18B
:1001E4000448AFF300800123237010BD04000020F5
:1001F400000000006406000808B5054B1BB1054962
:100204000548AFF30080BDE80840FFF7CFBF00BF4B
:1002140000000000080000206406000808B5104B28
:100224001048D3F83028104942F4C00242F09F022B
:10023400C3F83028D3F8342842F08002C3F83428B5
:10024400D3F840281043C3F84008D3F84428114396
:10025400C3F8441800F08EF8BDE8084000F04AB82E
:10026400003002400FC0E2103179070038B500F0C9
:1002740023F9044600F028F9054600F02DF95DB98C
:1002840020BBC4B900F0EEF8204600F0F9F820468F
:10029400BDE8384000F002B958B1D4B9012000F0EB
:1002A400E1F8012000F0ECF8BDE83840002000F04F
:1002B400F5B8012CF2D0012000F0D4F8002000F0B1
:1002C400DFF8BDE83840002000F0E8B8002CF2D098
:1002D400E4E7012000F0C6F8012000F0D1F8BDE801
:1002E4003840012000F0DAB808B5FFF797FFFFF7B0
:1002F400BDFFFCE71E4BDA6A22F48012DA62DA6A86
:1003040022F40012DA62DA6A22F48002DA62DA6A29
:1003140022F40002DA625A6B22F001025A635A6B29
:1003240022F002025A635A6B22F004025A635A6B97
:1003340022F008025A635A6B22F010025A635A6878
:1003440022F080725A605A6822F000725A601A6968
:1003540042F001021A611A6942F002021A611A6932
:1003640022F004021A619A6842F001029A6070470E
:10037400002001403A4B1A6842F004021A601A68DD
:1003840022F008021A601A6842F010021A601A6811
:1003940022F020021A601A6842F040021A601A68B9
:1003A40022F080021A609A6822F004029A609A6825
:1003B40022F008029A609A6822F010029A609A6801
:1003C40022F020029A609A6822F040029A609A68A9
:1003D40022F080029A605A6822F002025A605A6837
:1003E40022F004025A605A6822F008025A601A681D
:1003F40042F001021A601A6842F002021A601A6896
:1004040022F480721A601A6822F400721A601A6860
:1004140022F480621A601A6822F400621A601A6870
:1004240022F480521A601A6822F400521A60DA68C0
:1004340022F48072DA60DA6842F40072DA60DA6810
:1004440022F48062DA60DA6842F40062DA60DA6820
:1004540022F48052DA60DA6842F40052DA607047BB
:1004640000000240054A536918B143F00203536186
:10047400704723F002035361704700BF000002403D
:10048400054A536918B143F004035361704723F0DC
:1004940004035361704700BF00000240054A5369DA
:1004A40018B143F008035361704723F00803536104
:1004B400704700BF00000240024B1869C0F30010EF
:1004C400704700BF00000240024B1869C0F340109F
:1004D400704700BF00000240024B1869C0F380104F
:1004E400704700BF00000240704700BFDFF834D0FF
:1004F400FFF7FAFF0C480D490D4A002302E0D458D7
:10050400C4500433C4188C42F9D30A4A0A4C002359
:1005140001E013600432A242FBD300F011F8FFF7AC
:10052400E3FE7047000001200000002004000020CA
:100534008806000804000020B8010020FEE700003F
:1005440070B50E4E0E4DAE4208D0761BB610002488
:1005540055F8043B01349847A642F9D8094E0A4D90
:1005640000F07EF8AE4208D0761BB610002455F891
:10057400043B01349847A642F9D870BD7C060008B4
:100584007C060008840600087C060008704700BF4B
:10059400704700BF024B13B1024800F005B8704722
:1005A40000000000B9050008002301461A46184659
:1005B40000F014B838B5074D074C2C1BA41005D017
:1005C400013C55F8043D9847002CF9D1BDE838406A
:1005D40000F04CB88806000884060008F0B51D4CED
:1005E40083B005462068019116461F46FFF7CEFFEB
:1005F400194A0199136823B35A6820681F2A23DC17
:100604004DB9541C02325C6043F82210FFF7C0FF5E
:10061400002003B0F0BD03EB820E0124CEF8886005
:10062400D3F88861944046EA040C022DC3F888C1CB
:10063400CEF80871E5D1D3F88C512543C3F88C5119
:10064400DFE7064B1360D7E7FFF7A2FF4FF0FF3059
:10065400DFE700BF00000020240000202800002065
:10066400F8B500BFF8BC08BC9E467047F8B500BF9B
:08067400F8BC08BC9E4670476B
:08067C0099050008FD010008CA
:04068400D501000894
:04068800200000202E
:04000005080004F1FA
:00000001FF
